{
  "_format": "hh-sol-artifact-1",
  "contractName": "ncs",
  "sourceName": "contracts/ncs.sol",
  "abi": [
    {
      "inputs": [
        {
          "internalType": "address",
          "name": "admin",
          "type": "address"
        }
      ],
      "stateMutability": "nonpayable",
      "type": "constructor"
    },
    {
      "inputs": [
        {
          "internalType": "string",
          "name": "courseName",
          "type": "string"
        }
      ],
      "name": "ncs__AlreadyRequested",
      "type": "error"
    },
    {
      "inputs": [],
      "name": "ncs__StudentAlreadyPresent",
      "type": "error"
    },
    {
      "inputs": [],
      "name": "ncs__StudentNotPresent",
      "type": "error"
    },
    {
      "inputs": [],
      "name": "ncs__approvedAlready",
      "type": "error"
    },
    {
      "inputs": [
        {
          "internalType": "string",
          "name": "courseName",
          "type": "string"
        }
      ],
      "name": "ncs__certificationNotRequested",
      "type": "error"
    },
    {
      "inputs": [],
      "name": "ncs__notTheAdminError",
      "type": "error"
    },
    {
      "inputs": [],
      "name": "ncs__studentEnrolledInTheCourse",
      "type": "error"
    },
    {
      "inputs": [],
      "name": "ncs__studentNotEnrolledInTheCourse",
      "type": "error"
    },
    {
      "anonymous": false,
      "inputs": [
        {
          "indexed": true,
          "internalType": "address",
          "name": "sender",
          "type": "address"
        },
        {
          "indexed": true,
          "internalType": "string",
          "name": "courseName",
          "type": "string"
        }
      ],
      "name": "CourseEnrolled",
      "type": "event"
    },
    {
      "anonymous": false,
      "inputs": [
        {
          "indexed": true,
          "internalType": "address",
          "name": "Sender",
          "type": "address"
        },
        {
          "indexed": false,
          "internalType": "uint256",
          "name": "Age",
          "type": "uint256"
        },
        {
          "indexed": true,
          "internalType": "string",
          "name": "Address",
          "type": "string"
        }
      ],
      "name": "StudentData",
      "type": "event"
    },
    {
      "anonymous": false,
      "inputs": [
        {
          "indexed": true,
          "internalType": "address",
          "name": "sender",
          "type": "address"
        },
        {
          "indexed": true,
          "internalType": "string",
          "name": "courseName",
          "type": "string"
        }
      ],
      "name": "certificateAproved",
      "type": "event"
    },
    {
      "inputs": [
        {
          "internalType": "address",
          "name": "requester",
          "type": "address"
        },
        {
          "internalType": "string",
          "name": "courseName",
          "type": "string"
        }
      ],
      "name": "AproveCertification",
      "outputs": [],
      "stateMutability": "nonpayable",
      "type": "function"
    },
    {
      "inputs": [
        {
          "internalType": "address",
          "name": "requester",
          "type": "address"
        }
      ],
      "name": "ShowDetailsofStudent",
      "outputs": [
        {
          "components": [
            {
              "internalType": "string",
              "name": "Name",
              "type": "string"
            },
            {
              "internalType": "uint256",
              "name": "Age",
              "type": "uint256"
            },
            {
              "internalType": "string",
              "name": "College",
              "type": "string"
            }
          ],
          "internalType": "struct ncs.Student",
          "name": "",
          "type": "tuple"
        }
      ],
      "stateMutability": "view",
      "type": "function"
    },
    {
      "inputs": [
        {
          "internalType": "string",
          "name": "name",
          "type": "string"
        },
        {
          "internalType": "uint256",
          "name": "age",
          "type": "uint256"
        },
        {
          "internalType": "string",
          "name": "college",
          "type": "string"
        }
      ],
      "name": "addStudentDetails",
      "outputs": [],
      "stateMutability": "nonpayable",
      "type": "function"
    },
    {
      "inputs": [
        {
          "internalType": "string",
          "name": "courseName",
          "type": "string"
        }
      ],
      "name": "enrollIntoCourse",
      "outputs": [],
      "stateMutability": "payable",
      "type": "function"
    },
    {
      "inputs": [
        {
          "internalType": "uint256",
          "name": "",
          "type": "uint256"
        }
      ],
      "name": "existingStudent",
      "outputs": [
        {
          "internalType": "address",
          "name": "",
          "type": "address"
        }
      ],
      "stateMutability": "view",
      "type": "function"
    },
    {
      "inputs": [
        {
          "internalType": "address",
          "name": "requester",
          "type": "address"
        },
        {
          "internalType": "string",
          "name": "value",
          "type": "string"
        }
      ],
      "name": "removeElement",
      "outputs": [],
      "stateMutability": "nonpayable",
      "type": "function"
    },
    {
      "inputs": [
        {
          "internalType": "address",
          "name": "requester",
          "type": "address"
        },
        {
          "internalType": "string",
          "name": "courseName",
          "type": "string"
        }
      ],
      "name": "requestDegree",
      "outputs": [],
      "stateMutability": "nonpayable",
      "type": "function"
    },
    {
      "inputs": [
        {
          "internalType": "address",
          "name": "requester",
          "type": "address"
        }
      ],
      "name": "showAllEnrolledCourses",
      "outputs": [
        {
          "internalType": "string[]",
          "name": "",
          "type": "string[]"
        }
      ],
      "stateMutability": "view",
      "type": "function"
    },
    {
      "inputs": [],
      "name": "showAllStudents",
      "outputs": [
        {
          "internalType": "address[]",
          "name": "",
          "type": "address[]"
        }
      ],
      "stateMutability": "view",
      "type": "function"
    },
    {
      "inputs": [
        {
          "internalType": "address",
          "name": "requester",
          "type": "address"
        }
      ],
      "name": "showApprovedCertification",
      "outputs": [
        {
          "internalType": "string[]",
          "name": "",
          "type": "string[]"
        }
      ],
      "stateMutability": "view",
      "type": "function"
    },
    {
      "inputs": [
        {
          "internalType": "address",
          "name": "requester",
          "type": "address"
        }
      ],
      "name": "showAvailableCredits",
      "outputs": [
        {
          "internalType": "uint256",
          "name": "",
          "type": "uint256"
        }
      ],
      "stateMutability": "view",
      "type": "function"
    },
    {
      "inputs": [
        {
          "internalType": "address",
          "name": "requester",
          "type": "address"
        }
      ],
      "name": "showRequestedCertifications",
      "outputs": [
        {
          "internalType": "string[]",
          "name": "",
          "type": "string[]"
        }
      ],
      "stateMutability": "view",
      "type": "function"
    },
    {
      "inputs": [],
      "name": "withDrawFunds",
      "outputs": [],
      "stateMutability": "nonpayable",
      "type": "function"
    }
  ],
  "bytecode": "0x60a060405260006005553480156200001657600080fd5b5060405162003b8438038062003b8483398181016040528101906200003c9190620000e1565b8073ffffffffffffffffffffffffffffffffffffffff1660808173ffffffffffffffffffffffffffffffffffffffff16815250505062000113565b600080fd5b600073ffffffffffffffffffffffffffffffffffffffff82169050919050565b6000620000a9826200007c565b9050919050565b620000bb816200009c565b8114620000c757600080fd5b50565b600081519050620000db81620000b0565b92915050565b600060208284031215620000fa57620000f962000077565b5b60006200010a84828501620000ca565b91505092915050565b608051613a476200013d60003960008181610f3a01528181611c09015261214f0152613a476000f3fe6080604052600436106100c25760003560e01c80636bae69291161007f578063b9b748dc11610059578063b9b748dc14610257578063c24d4ef714610294578063e091f19f146102d1578063ea879c4e1461030e576100c2565b80636bae6929146101ee578063766affa414610217578063b78da38614610240576100c2565b80630ff26fbc146100c757806321c6aa11146101045780632b217880146101205780633630a4551461015d5780633f04ddac1461018857806353aef3c0146101c5575b600080fd5b3480156100d357600080fd5b506100ee60048036038101906100e99190612e92565b610337565b6040516100fb9190612fc8565b60405180910390f35b61011e6004803603810190610119919061311f565b61059d565b005b34801561012c57600080fd5b5061014760048036038101906101429190612e92565b610d3e565b604051610154919061322a565b60405180910390f35b34801561016957600080fd5b50610172610f36565b60405161017f919061330a565b60405180910390f35b34801561019457600080fd5b506101af60048036038101906101aa9190612e92565b611049565b6040516101bc919061322a565b60405180910390f35b3480156101d157600080fd5b506101ec60048036038101906101e7919061332c565b611161565b005b3480156101fa57600080fd5b506102156004803603810190610210919061332c565b611534565b005b34801561022357600080fd5b5061023e6004803603810190610239919061332c565b6117cf565b005b34801561024c57600080fd5b5061025561214d565b005b34801561026357600080fd5b5061027e60048036038101906102799190612e92565b61266f565b60405161028b919061322a565b60405180910390f35b3480156102a057600080fd5b506102bb60048036038101906102b691906133b4565b612867565b6040516102c891906133f0565b60405180910390f35b3480156102dd57600080fd5b506102f860048036038101906102f39190612e92565b6128a6565b604051610305919061341a565b60405180910390f35b34801561031a57600080fd5b5061033560048036038101906103309190613435565b6129cf565b005b61033f612c0b565b816000805b6007805490508110156103e5578273ffffffffffffffffffffffffffffffffffffffff166007828154811061037c5761037b6134c0565b5b9060005260206000200160009054906101000a900473ffffffffffffffffffffffffffffffffffffffff1673ffffffffffffffffffffffffffffffffffffffff1614156103cc57600191506103d1565b6103d2565b5b80806103dd9061351e565b915050610344565b508061041d576040517ff50fc63e00000000000000000000000000000000000000000000000000000000815260040160405180910390fd5b6000808573ffffffffffffffffffffffffffffffffffffffff1673ffffffffffffffffffffffffffffffffffffffff16815260200190815260200160002060405180606001604052908160008201805461047690613596565b80601f01602080910402602001604051908101604052809291908181526020018280546104a290613596565b80156104ef5780601f106104c4576101008083540402835291602001916104ef565b820191906000526020600020905b8154815290600101906020018083116104d257829003601f168201915b505050505081526020016001820154815260200160028201805461051290613596565b80601f016020809104026020016040519081016040528092919081815260200182805461053e90613596565b801561058b5780601f106105605761010080835404028352916020019161058b565b820191906000526020600020905b81548152906001019060200180831161056e57829003601f168201915b50505050508152505092505050919050565b336000805b600780549050811015610643578273ffffffffffffffffffffffffffffffffffffffff16600782815481106105da576105d96134c0565b5b9060005260206000200160009054906101000a900473ffffffffffffffffffffffffffffffffffffffff1673ffffffffffffffffffffffffffffffffffffffff16141561062a576001915061062f565b610630565b5b808061063b9061351e565b9150506105a2565b508061067b576040517ff50fc63e00000000000000000000000000000000000000000000000000000000815260040160405180910390fd5b338360005b600360008473ffffffffffffffffffffffffffffffffffffffff1673ffffffffffffffffffffffffffffffffffffffff1681526020019081526020016000208054905081101561078d57600360008473ffffffffffffffffffffffffffffffffffffffff1673ffffffffffffffffffffffffffffffffffffffff168152602001908152602001600020818154811061071b5761071a6134c0565b5b906000526020600020016040516107329190613667565b60405180910390208280519060200120141561077a576040517fee0a5c0400000000000000000000000000000000000000000000000000000000815260040160405180910390fd5b80806107859061351e565b915050610680565b5060006040518060400160405280600381526020017f3974680000000000000000000000000000000000000000000000000000000000815250805190602001208680519060200120148061082357506040518060400160405280600481526020017f3130746800000000000000000000000000000000000000000000000000000000815250805190602001208680519060200120145b1561088257671bc16d674ec800009050803414610875576040517f08c379a000000000000000000000000000000000000000000000000000000000815260040161086c906136db565b60405180910390fd5b6014600581905550610c04565b6040518060400160405280600481526020017f3131746800000000000000000000000000000000000000000000000000000000815250805190602001208680519060200120148061091557506040518060400160405280600481526020017f3132746800000000000000000000000000000000000000000000000000000000815250805190602001208680519060200120145b156109f757673782dace9d9000009050803414610967576040517f08c379a000000000000000000000000000000000000000000000000000000000815260040161095e90613747565b60405180910390fd5b6028600260003373ffffffffffffffffffffffffffffffffffffffff1673ffffffffffffffffffffffffffffffffffffffff1681526020019081526020016000205410156109ea576040517f08c379a00000000000000000000000000000000000000000000000000000000081526004016109e1906137b3565b60405180910390fd5b6028600581905550610c03565b6040518060400160405280600781526020017f4469706c6f6d61000000000000000000000000000000000000000000000000008152508051906020012086805190602001201480610a8a57506040518060400160405280600681526020017f4465677265650000000000000000000000000000000000000000000000000000815250805190602001208680519060200120145b80610ad757506040518060400160405280600281526020017f686d000000000000000000000000000000000000000000000000000000000000815250805190602001208680519060200120145b80610b2457506040518060400160405280600381526020017f6172740000000000000000000000000000000000000000000000000000000000815250805190602001208680519060200120145b15610c02576753444835ec5800009050803414610b76576040517f08c379a0000000000000000000000000000000000000000000000000000000008152600401610b6d906136db565b60405180910390fd5b6078600260003373ffffffffffffffffffffffffffffffffffffffff1673ffffffffffffffffffffffffffffffffffffffff168152602001908152602001600020541015610bf9576040517f08c379a0000000000000000000000000000000000000000000000000000000008152600401610bf0906137b3565b60405180910390fd5b603c6005819055505b5b5b600360003373ffffffffffffffffffffffffffffffffffffffff1673ffffffffffffffffffffffffffffffffffffffff16815260200190815260200160002086908060018154018082558091505060019003906000526020600020016000909190919091509080519060200190610c7c929190612c2c565b5080600160003373ffffffffffffffffffffffffffffffffffffffff1673ffffffffffffffffffffffffffffffffffffffff16815260200190815260200160002087604051610ccb919061380f565b90815260200160405180910390208190555085604051610ceb919061380f565b60405180910390203373ffffffffffffffffffffffffffffffffffffffff167f5dbb2ac1ac1e3e5d3a64fd8aeeff1a349fe6bd6fb006affe8e97389e64940cf660405160405180910390a3505050505050565b6060816000805b600780549050811015610de6578273ffffffffffffffffffffffffffffffffffffffff1660078281548110610d7d57610d7c6134c0565b5b9060005260206000200160009054906101000a900473ffffffffffffffffffffffffffffffffffffffff1673ffffffffffffffffffffffffffffffffffffffff161415610dcd5760019150610dd2565b610dd3565b5b8080610dde9061351e565b915050610d45565b5080610e1e576040517ff50fc63e00000000000000000000000000000000000000000000000000000000815260040160405180910390fd5b600360008573ffffffffffffffffffffffffffffffffffffffff1673ffffffffffffffffffffffffffffffffffffffff168152602001908152602001600020805480602002602001604051908101604052809291908181526020016000905b82821015610f29578382906000526020600020018054610e9c90613596565b80601f0160208091040260200160405190810160405280929190818152602001828054610ec890613596565b8015610f155780601f10610eea57610100808354040283529160200191610f15565b820191906000526020600020905b815481529060010190602001808311610ef857829003601f168201915b505050505081526020019060010190610e7d565b5050505092505050919050565b60607f000000000000000000000000000000000000000000000000000000000000000073ffffffffffffffffffffffffffffffffffffffff163373ffffffffffffffffffffffffffffffffffffffff1614610fbd576040517f5184822700000000000000000000000000000000000000000000000000000000815260040160405180910390fd5b600780548060200260200160405190810160405280929190818152602001828054801561103f57602002820191906000526020600020905b8160009054906101000a900473ffffffffffffffffffffffffffffffffffffffff1673ffffffffffffffffffffffffffffffffffffffff1681526020019060010190808311610ff5575b5050505050905090565b6060600660008373ffffffffffffffffffffffffffffffffffffffff1673ffffffffffffffffffffffffffffffffffffffff168152602001908152602001600020805480602002602001604051908101604052809291908181526020016000905b828210156111565783829060005260206000200180546110c990613596565b80601f01602080910402602001604051908101604052809291908181526020018280546110f590613596565b80156111425780601f1061111757610100808354040283529160200191611142565b820191906000526020600020905b81548152906001019060200180831161112557829003601f168201915b5050505050815260200190600101906110aa565b505050509050919050565b81816000805b600360008573ffffffffffffffffffffffffffffffffffffffff1673ffffffffffffffffffffffffffffffffffffffff1681526020019081526020016000208054905081101561124757600360008573ffffffffffffffffffffffffffffffffffffffff1673ffffffffffffffffffffffffffffffffffffffff1681526020019081526020016000208181548110611202576112016134c0565b5b906000526020600020016040516112199190613667565b60405180910390208380519060200120141561123457600191505b808061123f9061351e565b915050611167565b508061127f576040517f1174096600000000000000000000000000000000000000000000000000000000815260040160405180910390fd5b848460005b600460008473ffffffffffffffffffffffffffffffffffffffff1673ffffffffffffffffffffffffffffffffffffffff1681526020019081526020016000208054905081101561139c578180519060200120600460008573ffffffffffffffffffffffffffffffffffffffff1673ffffffffffffffffffffffffffffffffffffffff1681526020019081526020016000208281548110611327576113266134c0565b5b9060005260206000200160405161133e9190613667565b6040518091039020141561138957816040517fe794379d000000000000000000000000000000000000000000000000000000008152600401611380919061385f565b60405180910390fd5b80806113949061351e565b915050611284565b50868660005b600660008473ffffffffffffffffffffffffffffffffffffffff1673ffffffffffffffffffffffffffffffffffffffff168152602001908152602001600020805490508110156114af578180519060200120600660008573ffffffffffffffffffffffffffffffffffffffff1673ffffffffffffffffffffffffffffffffffffffff1681526020019081526020016000208281548110611445576114446134c0565b5b9060005260206000200160405161145c9190613667565b6040518091039020141561149c576040517f03d3e81800000000000000000000000000000000000000000000000000000000815260040160405180910390fd5b80806114a79061351e565b9150506113a2565b50600460008a73ffffffffffffffffffffffffffffffffffffffff1673ffffffffffffffffffffffffffffffffffffffff16815260200190815260200160002088908060018154018082558091505060019003906000526020600020016000909190919091509080519060200190611528929190612c2c565b50505050505050505050565b60005b600460008473ffffffffffffffffffffffffffffffffffffffff1673ffffffffffffffffffffffffffffffffffffffff168152602001908152602001600020805490508110156117ca578180519060200120600460008573ffffffffffffffffffffffffffffffffffffffff1673ffffffffffffffffffffffffffffffffffffffff16815260200190815260200160002082815481106115da576115d96134c0565b5b906000526020600020016040516115f19190613667565b604051809103902014156117b75760008190505b6001600460008673ffffffffffffffffffffffffffffffffffffffff1673ffffffffffffffffffffffffffffffffffffffff168152602001908152602001600020805490506116549190613881565b81101561174857600460008573ffffffffffffffffffffffffffffffffffffffff1673ffffffffffffffffffffffffffffffffffffffff1681526020019081526020016000206001826116a791906138b5565b815481106116b8576116b76134c0565b5b90600052602060002001600460008673ffffffffffffffffffffffffffffffffffffffff1673ffffffffffffffffffffffffffffffffffffffff1681526020019081526020016000208281548110611713576117126134c0565b5b9060005260206000200190805461172990613596565b611734929190612cb2565b5080806117409061351e565b915050611605565b50600460008473ffffffffffffffffffffffffffffffffffffffff1673ffffffffffffffffffffffffffffffffffffffff1681526020019081526020016000208054806117985761179761390b565b5b6001900381819060005260206000200160006117b49190612d3f565b90555b80806117c29061351e565b915050611537565b505050565b81816000805b600460008573ffffffffffffffffffffffffffffffffffffffff1673ffffffffffffffffffffffffffffffffffffffff168152602001908152602001600020805490508110156118b5578280519060200120600460008673ffffffffffffffffffffffffffffffffffffffff1673ffffffffffffffffffffffffffffffffffffffff1681526020019081526020016000208281548110611878576118776134c0565b5b9060005260206000200160405161188f9190613667565b604051809103902014156118a257600191505b80806118ad9061351e565b9150506117d5565b50806118f857816040517f6accdc5e0000000000000000000000000000000000000000000000000000000081526004016118ef919061385f565b60405180910390fd5b846000805b60078054905081101561199e578273ffffffffffffffffffffffffffffffffffffffff1660078281548110611935576119346134c0565b5b9060005260206000200160009054906101000a900473ffffffffffffffffffffffffffffffffffffffff1673ffffffffffffffffffffffffffffffffffffffff161415611985576001915061198a565b61198b565b5b80806119969061351e565b9150506118fd565b50806119d6576040517ff50fc63e00000000000000000000000000000000000000000000000000000000815260040160405180910390fd5b86866000805b600360008573ffffffffffffffffffffffffffffffffffffffff1673ffffffffffffffffffffffffffffffffffffffff16815260200190815260200160002080549050811015611abc57600360008573ffffffffffffffffffffffffffffffffffffffff1673ffffffffffffffffffffffffffffffffffffffff1681526020019081526020016000208181548110611a7757611a766134c0565b5b90600052602060002001604051611a8e9190613667565b604051809103902083805190602001201415611aa957600191505b8080611ab49061351e565b9150506119dc565b5080611af4576040517f1174096600000000000000000000000000000000000000000000000000000000815260040160405180910390fd5b898960005b600660008473ffffffffffffffffffffffffffffffffffffffff1673ffffffffffffffffffffffffffffffffffffffff16815260200190815260200160002080549050811015611c06578180519060200120600660008573ffffffffffffffffffffffffffffffffffffffff1673ffffffffffffffffffffffffffffffffffffffff1681526020019081526020016000208281548110611b9c57611b9b6134c0565b5b90600052602060002001604051611bb39190613667565b60405180910390201415611bf3576040517f03d3e81800000000000000000000000000000000000000000000000000000000815260040160405180910390fd5b8080611bfe9061351e565b915050611af9565b507f000000000000000000000000000000000000000000000000000000000000000073ffffffffffffffffffffffffffffffffffffffff163373ffffffffffffffffffffffffffffffffffffffff1614611c8c576040517f5184822700000000000000000000000000000000000000000000000000000000815260040160405180910390fd5b6040518060400160405280600381526020017f3974680000000000000000000000000000000000000000000000000000000000815250805190602001208b805190602001201480611d1f57506040518060400160405280600481526020017f3130746800000000000000000000000000000000000000000000000000000000815250805190602001208b80519060200120145b15611d80576014600260008e73ffffffffffffffffffffffffffffffffffffffff1673ffffffffffffffffffffffffffffffffffffffff1681526020019081526020016000206000828254611d7491906138b5565b92505081905550612000565b6040518060400160405280600481526020017f3131746800000000000000000000000000000000000000000000000000000000815250805190602001208b805190602001201480611e1357506040518060400160405280600481526020017f3132746800000000000000000000000000000000000000000000000000000000815250805190602001208b80519060200120145b15611e74576028600260008e73ffffffffffffffffffffffffffffffffffffffff1673ffffffffffffffffffffffffffffffffffffffff1681526020019081526020016000206000828254611e6891906138b5565b92505081905550611fff565b6040518060400160405280600781526020017f4469706c6f6d6100000000000000000000000000000000000000000000000000815250805190602001208b805190602001201480611f0757506040518060400160405280600681526020017f4465677265650000000000000000000000000000000000000000000000000000815250805190602001208b80519060200120145b80611f5457506040518060400160405280600281526020017f686d000000000000000000000000000000000000000000000000000000000000815250805190602001208b80519060200120145b80611fa157506040518060400160405280600381526020017f6172740000000000000000000000000000000000000000000000000000000000815250805190602001208b80519060200120145b15611ffe57603c600260008e73ffffffffffffffffffffffffffffffffffffffff1673ffffffffffffffffffffffffffffffffffffffff1681526020019081526020016000206000828254611ff691906138b5565b925050819055505b5b5b600660008d73ffffffffffffffffffffffffffffffffffffffff1673ffffffffffffffffffffffffffffffffffffffff1681526020019081526020016000208b908060018154018082558091505060019003906000526020600020016000909190919091509080519060200190612078929190612c2c565b508a604051612087919061380f565b60405180910390208c73ffffffffffffffffffffffffffffffffffffffff167f222ba01ff68401e59cb9514e72c7ac2e86c9d3fb382f46e52a59318f222cd6dc60405160405180910390a33073ffffffffffffffffffffffffffffffffffffffff16636bae69298d8d6040518363ffffffff1660e01b815260040161210d92919061393a565b600060405180830381600087803b15801561212757600080fd5b505af115801561213b573d6000803e3d6000fd5b50505050505050505050505050505050565b7f000000000000000000000000000000000000000000000000000000000000000073ffffffffffffffffffffffffffffffffffffffff163373ffffffffffffffffffffffffffffffffffffffff16146121d2576040517f5184822700000000000000000000000000000000000000000000000000000000815260040160405180910390fd5b60005b6007805490508110156125bf57600060026000600784815481106121fc576121fb6134c0565b5b9060005260206000200160009054906101000a900473ffffffffffffffffffffffffffffffffffffffff1673ffffffffffffffffffffffffffffffffffffffff1673ffffffffffffffffffffffffffffffffffffffff16815260200190815260200160002081905550600067ffffffffffffffff8111156122805761227f612ff4565b5b6040519080825280602002602001820160405280156122b357816020015b606081526020019060019003908161229e5790505b5060036000600784815481106122cc576122cb6134c0565b5b9060005260206000200160009054906101000a900473ffffffffffffffffffffffffffffffffffffffff1673ffffffffffffffffffffffffffffffffffffffff1673ffffffffffffffffffffffffffffffffffffffff1681526020019081526020016000209080519060200190612344929190612d7f565b50600067ffffffffffffffff8111156123605761235f612ff4565b5b60405190808252806020026020018201604052801561239357816020015b606081526020019060019003908161237e5790505b5060066000600784815481106123ac576123ab6134c0565b5b9060005260206000200160009054906101000a900473ffffffffffffffffffffffffffffffffffffffff1673ffffffffffffffffffffffffffffffffffffffff1673ffffffffffffffffffffffffffffffffffffffff1681526020019081526020016000209080519060200190612424929190612d7f565b50600067ffffffffffffffff8111156124405761243f612ff4565b5b60405190808252806020026020018201604052801561247357816020015b606081526020019060019003908161245e5790505b50600460006007848154811061248c5761248b6134c0565b5b9060005260206000200160009054906101000a900473ffffffffffffffffffffffffffffffffffffffff1673ffffffffffffffffffffffffffffffffffffffff1673ffffffffffffffffffffffffffffffffffffffff1681526020019081526020016000209080519060200190612504929190612d7f565b506000806007838154811061251c5761251b6134c0565b5b9060005260206000200160009054906101000a900473ffffffffffffffffffffffffffffffffffffffff1673ffffffffffffffffffffffffffffffffffffffff1673ffffffffffffffffffffffffffffffffffffffff168152602001908152602001600020600080820160006125929190612d3f565b60018201600090556002820160006125aa9190612d3f565b505080806125b79061351e565b9150506121d5565b5060003373ffffffffffffffffffffffffffffffffffffffff16476040516125e690613990565b60006040518083038185875af1925050503d8060008114612623576040519150601f19603f3d011682016040523d82523d6000602084013e612628565b606091505b505090508061266c576040517f08c379a0000000000000000000000000000000000000000000000000000000008152600401612663906139f1565b60405180910390fd5b50565b6060816000805b600780549050811015612717578273ffffffffffffffffffffffffffffffffffffffff16600782815481106126ae576126ad6134c0565b5b9060005260206000200160009054906101000a900473ffffffffffffffffffffffffffffffffffffffff1673ffffffffffffffffffffffffffffffffffffffff1614156126fe5760019150612703565b612704565b5b808061270f9061351e565b915050612676565b508061274f576040517ff50fc63e00000000000000000000000000000000000000000000000000000000815260040160405180910390fd5b600460008573ffffffffffffffffffffffffffffffffffffffff1673ffffffffffffffffffffffffffffffffffffffff168152602001908152602001600020805480602002602001604051908101604052809291908181526020016000905b8282101561285a5783829060005260206000200180546127cd90613596565b80601f01602080910402602001604051908101604052809291908181526020018280546127f990613596565b80156128465780601f1061281b57610100808354040283529160200191612846565b820191906000526020600020905b81548152906001019060200180831161282957829003601f168201915b5050505050815260200190600101906127ae565b5050505092505050919050565b6007818154811061287757600080fd5b906000526020600020016000915054906101000a900473ffffffffffffffffffffffffffffffffffffffff1681565b6000816000805b60078054905081101561294e578273ffffffffffffffffffffffffffffffffffffffff16600782815481106128e5576128e46134c0565b5b9060005260206000200160009054906101000a900473ffffffffffffffffffffffffffffffffffffffff1673ffffffffffffffffffffffffffffffffffffffff161415612935576001915061293a565b61293b565b5b80806129469061351e565b9150506128ad565b5080612986576040517ff50fc63e00000000000000000000000000000000000000000000000000000000815260040160405180910390fd5b600260008573ffffffffffffffffffffffffffffffffffffffff1673ffffffffffffffffffffffffffffffffffffffff1681526020019081526020016000205492505050919050565b3360005b600780549050811015612a97578173ffffffffffffffffffffffffffffffffffffffff1660078281548110612a0b57612a0a6134c0565b5b9060005260206000200160009054906101000a900473ffffffffffffffffffffffffffffffffffffffff1673ffffffffffffffffffffffffffffffffffffffff161415612a84576040517fb1c7fba000000000000000000000000000000000000000000000000000000000815260040160405180910390fd5b8080612a8f9061351e565b9150506129d3565b50600060405180606001604052808681526020018581526020018481525090506007339080600181540180825580915050600190039060005260206000200160009091909190916101000a81548173ffffffffffffffffffffffffffffffffffffffff021916908373ffffffffffffffffffffffffffffffffffffffff160217905550806000803373ffffffffffffffffffffffffffffffffffffffff1673ffffffffffffffffffffffffffffffffffffffff1681526020019081526020016000206000820151816000019080519060200190612b75929190612c2c565b50602082015181600101556040820151816002019080519060200190612b9c929190612c2c565b5090505082604051612bae919061380f565b60405180910390203373ffffffffffffffffffffffffffffffffffffffff167ff87a2343305935498417e40af27b8f95e49423a9b1baebfbf043f21e53eb907886604051612bfc919061341a565b60405180910390a35050505050565b60405180606001604052806060815260200160008152602001606081525090565b828054612c3890613596565b90600052602060002090601f016020900481019282612c5a5760008555612ca1565b82601f10612c7357805160ff1916838001178555612ca1565b82800160010185558215612ca1579182015b82811115612ca0578251825591602001919060010190612c85565b5b509050612cae9190612ddf565b5090565b828054612cbe90613596565b90600052602060002090601f016020900481019282612ce05760008555612d2e565b82601f10612cf15780548555612d2e565b82800160010185558215612d2e57600052602060002091601f016020900482015b82811115612d2d578254825591600101919060010190612d12565b5b509050612d3b9190612ddf565b5090565b508054612d4b90613596565b6000825580601f10612d5d5750612d7c565b601f016020900490600052602060002090810190612d7b9190612ddf565b5b50565b828054828255906000526020600020908101928215612dce579160200282015b82811115612dcd578251829080519060200190612dbd929190612c2c565b5091602001919060010190612d9f565b5b509050612ddb9190612dfc565b5090565b5b80821115612df8576000816000905550600101612de0565b5090565b5b80821115612e1c5760008181612e139190612d3f565b50600101612dfd565b5090565b6000604051905090565b600080fd5b600080fd5b600073ffffffffffffffffffffffffffffffffffffffff82169050919050565b6000612e5f82612e34565b9050919050565b612e6f81612e54565b8114612e7a57600080fd5b50565b600081359050612e8c81612e66565b92915050565b600060208284031215612ea857612ea7612e2a565b5b6000612eb684828501612e7d565b91505092915050565b600081519050919050565b600082825260208201905092915050565b60005b83811015612ef9578082015181840152602081019050612ede565b83811115612f08576000848401525b50505050565b6000601f19601f8301169050919050565b6000612f2a82612ebf565b612f348185612eca565b9350612f44818560208601612edb565b612f4d81612f0e565b840191505092915050565b6000819050919050565b612f6b81612f58565b82525050565b60006060830160008301518482036000860152612f8e8282612f1f565b9150506020830151612fa36020860182612f62565b5060408301518482036040860152612fbb8282612f1f565b9150508091505092915050565b60006020820190508181036000830152612fe28184612f71565b905092915050565b600080fd5b600080fd5b7f4e487b7100000000000000000000000000000000000000000000000000000000600052604160045260246000fd5b61302c82612f0e565b810181811067ffffffffffffffff8211171561304b5761304a612ff4565b5b80604052505050565b600061305e612e20565b905061306a8282613023565b919050565b600067ffffffffffffffff82111561308a57613089612ff4565b5b61309382612f0e565b9050602081019050919050565b82818337600083830152505050565b60006130c26130bd8461306f565b613054565b9050828152602081018484840111156130de576130dd612fef565b5b6130e98482856130a0565b509392505050565b600082601f83011261310657613105612fea565b5b81356131168482602086016130af565b91505092915050565b60006020828403121561313557613134612e2a565b5b600082013567ffffffffffffffff81111561315357613152612e2f565b5b61315f848285016130f1565b91505092915050565b600081519050919050565b600082825260208201905092915050565b6000819050602082019050919050565b60006131a08383612f1f565b905092915050565b6000602082019050919050565b60006131c082613168565b6131ca8185613173565b9350836020820285016131dc85613184565b8060005b8581101561321857848403895281516131f98582613194565b9450613204836131a8565b925060208a019950506001810190506131e0565b50829750879550505050505092915050565b6000602082019050818103600083015261324481846131b5565b905092915050565b600081519050919050565b600082825260208201905092915050565b6000819050602082019050919050565b61328181612e54565b82525050565b60006132938383613278565b60208301905092915050565b6000602082019050919050565b60006132b78261324c565b6132c18185613257565b93506132cc83613268565b8060005b838110156132fd5781516132e48882613287565b97506132ef8361329f565b9250506001810190506132d0565b5085935050505092915050565b6000602082019050818103600083015261332481846132ac565b905092915050565b6000806040838503121561334357613342612e2a565b5b600061335185828601612e7d565b925050602083013567ffffffffffffffff81111561337257613371612e2f565b5b61337e858286016130f1565b9150509250929050565b61339181612f58565b811461339c57600080fd5b50565b6000813590506133ae81613388565b92915050565b6000602082840312156133ca576133c9612e2a565b5b60006133d88482850161339f565b91505092915050565b6133ea81612e54565b82525050565b600060208201905061340560008301846133e1565b92915050565b61341481612f58565b82525050565b600060208201905061342f600083018461340b565b92915050565b60008060006060848603121561344e5761344d612e2a565b5b600084013567ffffffffffffffff81111561346c5761346b612e2f565b5b613478868287016130f1565b93505060206134898682870161339f565b925050604084013567ffffffffffffffff8111156134aa576134a9612e2f565b5b6134b6868287016130f1565b9150509250925092565b7f4e487b7100000000000000000000000000000000000000000000000000000000600052603260045260246000fd5b7f4e487b7100000000000000000000000000000000000000000000000000000000600052601160045260246000fd5b600061352982612f58565b91507fffffffffffffffffffffffffffffffffffffffffffffffffffffffffffffffff82141561355c5761355b6134ef565b5b600182019050919050565b7f4e487b7100000000000000000000000000000000000000000000000000000000600052602260045260246000fd5b600060028204905060018216806135ae57607f821691505b602082108114156135c2576135c1613567565b5b50919050565b600081905092915050565b60008190508160005260206000209050919050565b600081546135f581613596565b6135ff81866135c8565b9450600182166000811461361a576001811461362b5761365e565b60ff1983168652818601935061365e565b613634856135d3565b60005b8381101561365657815481890152600182019150602081019050613637565b838801955050505b50505092915050565b600061367382846135e8565b915081905092915050565b600082825260208201905092915050565b7f496e73756666696369656e742046756e64730000000000000000000000000000600082015250565b60006136c560128361367e565b91506136d08261368f565b602082019050919050565b600060208201905081810360008301526136f4816136b8565b9050919050565b7f496e73756666696369656e742046756e64732e00000000000000000000000000600082015250565b600061373160138361367e565b915061373c826136fb565b602082019050919050565b6000602082019050818103600083015261376081613724565b9050919050565b7f496e73756666696369656e7420637265646974732e0000000000000000000000600082015250565b600061379d60158361367e565b91506137a882613767565b602082019050919050565b600060208201905081810360008301526137cc81613790565b9050919050565b600081905092915050565b60006137e982612ebf565b6137f381856137d3565b9350613803818560208601612edb565b80840191505092915050565b600061381b82846137de565b915081905092915050565b600061383182612ebf565b61383b818561367e565b935061384b818560208601612edb565b61385481612f0e565b840191505092915050565b600060208201905081810360008301526138798184613826565b905092915050565b600061388c82612f58565b915061389783612f58565b9250828210156138aa576138a96134ef565b5b828203905092915050565b60006138c082612f58565b91506138cb83612f58565b9250827fffffffffffffffffffffffffffffffffffffffffffffffffffffffffffffffff03821115613900576138ff6134ef565b5b828201905092915050565b7f4e487b7100000000000000000000000000000000000000000000000000000000600052603160045260246000fd5b600060408201905061394f60008301856133e1565b81810360208301526139618184613826565b90509392505050565b50565b600061397a6000836135c8565b91506139858261396a565b600082019050919050565b600061399b8261396d565b9150819050919050565b7f46756e6473207472616e73666572206661696c65642100000000000000000000600082015250565b60006139db60168361367e565b91506139e6826139a5565b602082019050919050565b60006020820190508181036000830152613a0a816139ce565b905091905056fea2646970667358221220342efa6728a3e470558c5d494e117c4998a816a70abc211b97699fdff084f18764736f6c63430008090033",
  "linkReferences": {},
  "deployedLinkReferences": {}
}