{
  "address": "0x49747b5c5927f80a833D099F158aB9c29e890B79",
  "abi": [
    {
      "inputs": [
        {
          "internalType": "address",
          "name": "admin",
          "type": "address"
        }
      ],
      "stateMutability": "nonpayable",
      "type": "constructor"
    },
    {
      "inputs": [],
      "name": "ncs__StudentAlreadyPresent",
      "type": "error"
    },
    {
      "inputs": [],
      "name": "ncs__StudentNotPresent",
      "type": "error"
    },
    {
      "inputs": [],
      "name": "ncs__approvedAlready",
      "type": "error"
    },
    {
      "inputs": [],
      "name": "ncs__notTheAdminError",
      "type": "error"
    },
    {
      "inputs": [],
      "name": "ncs__studentEnrolledInTheCourse",
      "type": "error"
    },
    {
      "inputs": [],
      "name": "ncs__studentNotEnrolledInTheCourse",
      "type": "error"
    },
    {
      "inputs": [
        {
          "internalType": "string",
          "name": "courseName",
          "type": "string"
        }
      ],
      "name": "AproveCertification",
      "outputs": [],
      "stateMutability": "nonpayable",
      "type": "function"
    },
    {
      "inputs": [],
      "name": "ShowDetailsofStudent",
      "outputs": [
        {
          "components": [
            {
              "internalType": "string",
              "name": "Name",
              "type": "string"
            },
            {
              "internalType": "uint256",
              "name": "Age",
              "type": "uint256"
            },
            {
              "internalType": "string",
              "name": "College",
              "type": "string"
            }
          ],
          "internalType": "struct ncs.Student",
          "name": "",
          "type": "tuple"
        }
      ],
      "stateMutability": "view",
      "type": "function"
    },
    {
      "inputs": [
        {
          "internalType": "string",
          "name": "name",
          "type": "string"
        },
        {
          "internalType": "uint256",
          "name": "age",
          "type": "uint256"
        },
        {
          "internalType": "string",
          "name": "college",
          "type": "string"
        }
      ],
      "name": "addStudentDetails",
      "outputs": [],
      "stateMutability": "nonpayable",
      "type": "function"
    },
    {
      "inputs": [
        {
          "internalType": "string",
          "name": "courseName",
          "type": "string"
        }
      ],
      "name": "enrollIntoCourse",
      "outputs": [],
      "stateMutability": "payable",
      "type": "function"
    },
    {
      "inputs": [
        {
          "internalType": "uint256",
          "name": "",
          "type": "uint256"
        }
      ],
      "name": "existingStudent",
      "outputs": [
        {
          "internalType": "address",
          "name": "",
          "type": "address"
        }
      ],
      "stateMutability": "view",
      "type": "function"
    },
    {
      "inputs": [],
      "name": "showAllEnrolledCourses",
      "outputs": [
        {
          "internalType": "string[]",
          "name": "",
          "type": "string[]"
        }
      ],
      "stateMutability": "view",
      "type": "function"
    },
    {
      "inputs": [],
      "name": "showApprovedCertification",
      "outputs": [
        {
          "internalType": "string[]",
          "name": "",
          "type": "string[]"
        }
      ],
      "stateMutability": "view",
      "type": "function"
    },
    {
      "inputs": [],
      "name": "showAvailableCredits",
      "outputs": [
        {
          "internalType": "uint256",
          "name": "",
          "type": "uint256"
        }
      ],
      "stateMutability": "view",
      "type": "function"
    },
    {
      "inputs": [],
      "name": "withDrawFunds",
      "outputs": [],
      "stateMutability": "nonpayable",
      "type": "function"
    }
  ],
  "transactionHash": "0xe77c83addbace2556328d608191a7f36a5f2ea73c70951be19b7a840d3a10503",
  "args": [
    "0x90F79bf6EB2c4f870365E785982E1f101E93b906"
  ],
  "numDeployments": 1,
  "solcInputHash": "653199b3f925cbca28ea77388692db1a",
  "bytecode": "0x60a060405260006004553480156200001657600080fd5b50604051620028b5380380620028b583398181016040528101906200003c9190620000e1565b8073ffffffffffffffffffffffffffffffffffffffff1660808173ffffffffffffffffffffffffffffffffffffffff16815250505062000113565b600080fd5b600073ffffffffffffffffffffffffffffffffffffffff82169050919050565b6000620000a9826200007c565b9050919050565b620000bb816200009c565b8114620000c757600080fd5b50565b600081519050620000db81620000b0565b92915050565b600060208284031215620000fa57620000f962000077565b5b60006200010a84828501620000ca565b91505092915050565b6080516127866200012f60003960006115ec01526127866000f3fe6080604052600436106100865760003560e01c80639c654a12116100595780639c654a1214610126578063aa944e2214610151578063b78da3861461017c578063c24d4ef714610193578063ea879c4e146101d057610086565b8063062e9b911461008b57806321c6aa11146100b657806360ff97fe146100d25780639353dbc0146100fb575b600080fd5b34801561009757600080fd5b506100a06101f9565b6040516100ad9190611eab565b60405180910390f35b6100d060048036038101906100cb9190612016565b6103ef565b005b3480156100de57600080fd5b506100f960048036038101906100f49190612016565b610b37565b005b34801561010757600080fd5b50610110611186565b60405161011d9190611eab565b60405180910390f35b34801561013257600080fd5b5061013b61125f565b6040516101489190612078565b60405180910390f35b34801561015d57600080fd5b50610166611386565b60405161017391906120f9565b60405180910390f35b34801561018857600080fd5b506101916115ea565b005b34801561019f57600080fd5b506101ba60048036038101906101b59190612147565b6119b1565b6040516101c791906121b5565b60405180910390f35b3480156101dc57600080fd5b506101f760048036038101906101f291906121d0565b6119f0565b005b6060336000805b6006805490508110156102a1578273ffffffffffffffffffffffffffffffffffffffff16600682815481106102385761023761225b565b5b9060005260206000200160009054906101000a900473ffffffffffffffffffffffffffffffffffffffff1673ffffffffffffffffffffffffffffffffffffffff161415610288576001915061028d565b61028e565b5b8080610299906122b9565b915050610200565b50806102d9576040517ff50fc63e00000000000000000000000000000000000000000000000000000000815260040160405180910390fd5b600360003373ffffffffffffffffffffffffffffffffffffffff1673ffffffffffffffffffffffffffffffffffffffff168152602001908152602001600020805480602002602001604051908101604052809291908181526020016000905b828210156103e457838290600052602060002001805461035790612331565b80601f016020809104026020016040519081016040528092919081815260200182805461038390612331565b80156103d05780601f106103a5576101008083540402835291602001916103d0565b820191906000526020600020905b8154815290600101906020018083116103b357829003601f168201915b505050505081526020019060010190610338565b505050509250505090565b336000805b600680549050811015610495578273ffffffffffffffffffffffffffffffffffffffff166006828154811061042c5761042b61225b565b5b9060005260206000200160009054906101000a900473ffffffffffffffffffffffffffffffffffffffff1673ffffffffffffffffffffffffffffffffffffffff16141561047c5760019150610481565b610482565b5b808061048d906122b9565b9150506103f4565b50806104cd576040517ff50fc63e00000000000000000000000000000000000000000000000000000000815260040160405180910390fd5b338360005b600360008473ffffffffffffffffffffffffffffffffffffffff1673ffffffffffffffffffffffffffffffffffffffff168152602001908152602001600020805490508110156105df57600360008473ffffffffffffffffffffffffffffffffffffffff1673ffffffffffffffffffffffffffffffffffffffff168152602001908152602001600020818154811061056d5761056c61225b565b5b906000526020600020016040516105849190612402565b6040518091039020828051906020012014156105cc576040517fee0a5c0400000000000000000000000000000000000000000000000000000000815260040160405180910390fd5b80806105d7906122b9565b9150506104d2565b5060006040518060400160405280600381526020017f3974680000000000000000000000000000000000000000000000000000000000815250805190602001208680519060200120148061067557506040518060400160405280600481526020017f3130746800000000000000000000000000000000000000000000000000000000815250805190602001208680519060200120145b156106d457671bc16d674ec8000090508034146106c7576040517f08c379a00000000000000000000000000000000000000000000000000000000081526004016106be90612476565b60405180910390fd5b6014600481905550610a56565b6040518060400160405280600481526020017f3131746800000000000000000000000000000000000000000000000000000000815250805190602001208680519060200120148061076757506040518060400160405280600481526020017f3132746800000000000000000000000000000000000000000000000000000000815250805190602001208680519060200120145b1561084957673782dace9d90000090508034146107b9576040517f08c379a00000000000000000000000000000000000000000000000000000000081526004016107b0906124e2565b60405180910390fd5b6028600260003373ffffffffffffffffffffffffffffffffffffffff1673ffffffffffffffffffffffffffffffffffffffff16815260200190815260200160002054101561083c576040517f08c379a00000000000000000000000000000000000000000000000000000000081526004016108339061254e565b60405180910390fd5b6028600481905550610a55565b6040518060400160405280600781526020017f4469706c6f6d610000000000000000000000000000000000000000000000000081525080519060200120868051906020012014806108dc57506040518060400160405280600681526020017f4465677265650000000000000000000000000000000000000000000000000000815250805190602001208680519060200120145b8061092957506040518060400160405280600281526020017f686d000000000000000000000000000000000000000000000000000000000000815250805190602001208680519060200120145b8061097657506040518060400160405280600381526020017f6172740000000000000000000000000000000000000000000000000000000000815250805190602001208680519060200120145b15610a54576753444835ec58000090508034146109c8576040517f08c379a00000000000000000000000000000000000000000000000000000000081526004016109bf906125e0565b60405180910390fd5b6078600260003373ffffffffffffffffffffffffffffffffffffffff1673ffffffffffffffffffffffffffffffffffffffff168152602001908152602001600020541015610a4b576040517f08c379a0000000000000000000000000000000000000000000000000000000008152600401610a429061254e565b60405180910390fd5b603c6004819055505b5b5b600360003373ffffffffffffffffffffffffffffffffffffffff1673ffffffffffffffffffffffffffffffffffffffff16815260200190815260200160002086908060018154018082558091505060019003906000526020600020016000909190919091509080519060200190610ace929190611bc8565b5080600160003373ffffffffffffffffffffffffffffffffffffffff1673ffffffffffffffffffffffffffffffffffffffff16815260200190815260200160002087604051610b1d919061263c565b908152602001604051809103902081905550505050505050565b336000805b600680549050811015610bdd578273ffffffffffffffffffffffffffffffffffffffff1660068281548110610b7457610b7361225b565b5b9060005260206000200160009054906101000a900473ffffffffffffffffffffffffffffffffffffffff1673ffffffffffffffffffffffffffffffffffffffff161415610bc45760019150610bc9565b610bca565b5b8080610bd5906122b9565b915050610b3c565b5080610c15576040517ff50fc63e00000000000000000000000000000000000000000000000000000000815260040160405180910390fd5b33836000805b600360008573ffffffffffffffffffffffffffffffffffffffff1673ffffffffffffffffffffffffffffffffffffffff16815260200190815260200160002080549050811015610cfb57600360008573ffffffffffffffffffffffffffffffffffffffff1673ffffffffffffffffffffffffffffffffffffffff1681526020019081526020016000208181548110610cb657610cb561225b565b5b90600052602060002001604051610ccd9190612402565b604051809103902083805190602001201415610ce857600191505b8080610cf3906122b9565b915050610c1b565b5080610d33576040517f1174096600000000000000000000000000000000000000000000000000000000815260040160405180910390fd5b338660005b600580549050811015610dcb57818051906020012060058281548110610d6157610d6061225b565b5b90600052602060002001604051610d789190612402565b60405180910390201415610db8576040517f03d3e81800000000000000000000000000000000000000000000000000000000815260040160405180910390fd5b8080610dc3906122b9565b915050610d38565b506040518060400160405280600381526020017f39746800000000000000000000000000000000000000000000000000000000008152508051906020012088805190602001201480610e5f57506040518060400160405280600481526020017f3130746800000000000000000000000000000000000000000000000000000000815250805190602001208880519060200120145b15610ec0576014600260003373ffffffffffffffffffffffffffffffffffffffff1673ffffffffffffffffffffffffffffffffffffffff1681526020019081526020016000206000828254610eb49190612653565b92505081905550611140565b6040518060400160405280600481526020017f31317468000000000000000000000000000000000000000000000000000000008152508051906020012088805190602001201480610f5357506040518060400160405280600481526020017f3132746800000000000000000000000000000000000000000000000000000000815250805190602001208880519060200120145b15610fb4576028600260003373ffffffffffffffffffffffffffffffffffffffff1673ffffffffffffffffffffffffffffffffffffffff1681526020019081526020016000206000828254610fa89190612653565b9250508190555061113f565b6040518060400160405280600781526020017f4469706c6f6d6100000000000000000000000000000000000000000000000000815250805190602001208880519060200120148061104757506040518060400160405280600681526020017f4465677265650000000000000000000000000000000000000000000000000000815250805190602001208880519060200120145b8061109457506040518060400160405280600281526020017f686d000000000000000000000000000000000000000000000000000000000000815250805190602001208880519060200120145b806110e157506040518060400160405280600381526020017f6172740000000000000000000000000000000000000000000000000000000000815250805190602001208880519060200120145b1561113e57603c600260003373ffffffffffffffffffffffffffffffffffffffff1673ffffffffffffffffffffffffffffffffffffffff16815260200190815260200160002060008282546111369190612653565b925050819055505b5b5b60058890806001815401808255809150506001900390600052602060002001600090919091909150908051906020019061117b929190611bc8565b505050505050505050565b60606005805480602002602001604051908101604052809291908181526020016000905b828210156112565783829060005260206000200180546111c990612331565b80601f01602080910402602001604051908101604052809291908181526020018280546111f590612331565b80156112425780601f1061121757610100808354040283529160200191611242565b820191906000526020600020905b81548152906001019060200180831161122557829003601f168201915b5050505050815260200190600101906111aa565b50505050905090565b6000336000805b600680549050811015611307578273ffffffffffffffffffffffffffffffffffffffff166006828154811061129e5761129d61225b565b5b9060005260206000200160009054906101000a900473ffffffffffffffffffffffffffffffffffffffff1673ffffffffffffffffffffffffffffffffffffffff1614156112ee57600191506112f3565b6112f4565b5b80806112ff906122b9565b915050611266565b508061133f576040517ff50fc63e00000000000000000000000000000000000000000000000000000000815260040160405180910390fd5b600260003373ffffffffffffffffffffffffffffffffffffffff1673ffffffffffffffffffffffffffffffffffffffff168152602001908152602001600020549250505090565b61138e611c4e565b336000805b600680549050811015611434578273ffffffffffffffffffffffffffffffffffffffff16600682815481106113cb576113ca61225b565b5b9060005260206000200160009054906101000a900473ffffffffffffffffffffffffffffffffffffffff1673ffffffffffffffffffffffffffffffffffffffff16141561141b5760019150611420565b611421565b5b808061142c906122b9565b915050611393565b508061146c576040517ff50fc63e00000000000000000000000000000000000000000000000000000000815260040160405180910390fd5b6000803373ffffffffffffffffffffffffffffffffffffffff1673ffffffffffffffffffffffffffffffffffffffff1681526020019081526020016000206040518060600160405290816000820180546114c590612331565b80601f01602080910402602001604051908101604052809291908181526020018280546114f190612331565b801561153e5780601f106115135761010080835404028352916020019161153e565b820191906000526020600020905b81548152906001019060200180831161152157829003601f168201915b505050505081526020016001820154815260200160028201805461156190612331565b80601f016020809104026020016040519081016040528092919081815260200182805461158d90612331565b80156115da5780601f106115af576101008083540402835291602001916115da565b820191906000526020600020905b8154815290600101906020018083116115bd57829003601f168201915b5050505050815250509250505090565b7f000000000000000000000000000000000000000000000000000000000000000073ffffffffffffffffffffffffffffffffffffffff163373ffffffffffffffffffffffffffffffffffffffff161461166f576040517f5184822700000000000000000000000000000000000000000000000000000000815260040160405180910390fd5b60005b60068054905081101561190157600060026000600684815481106116995761169861225b565b5b9060005260206000200160009054906101000a900473ffffffffffffffffffffffffffffffffffffffff1673ffffffffffffffffffffffffffffffffffffffff1673ffffffffffffffffffffffffffffffffffffffff16815260200190815260200160002081905550600067ffffffffffffffff81111561171d5761171c611eeb565b5b60405190808252806020026020018201604052801561175057816020015b606081526020019060019003908161173b5790505b5060036000600684815481106117695761176861225b565b5b9060005260206000200160009054906101000a900473ffffffffffffffffffffffffffffffffffffffff1673ffffffffffffffffffffffffffffffffffffffff1673ffffffffffffffffffffffffffffffffffffffff16815260200190815260200160002090805190602001906117e1929190611c6f565b50600067ffffffffffffffff8111156117fd576117fc611eeb565b5b60405190808252806020026020018201604052801561183057816020015b606081526020019060019003908161181b5790505b5060059080519060200190611846929190611c6f565b506000806006838154811061185e5761185d61225b565b5b9060005260206000200160009054906101000a900473ffffffffffffffffffffffffffffffffffffffff1673ffffffffffffffffffffffffffffffffffffffff1673ffffffffffffffffffffffffffffffffffffffff168152602001908152602001600020600080820160006118d49190611ccf565b60018201600090556002820160006118ec9190611ccf565b505080806118f9906122b9565b915050611672565b5060003373ffffffffffffffffffffffffffffffffffffffff1647604051611928906126cf565b60006040518083038185875af1925050503d8060008114611965576040519150601f19603f3d011682016040523d82523d6000602084013e61196a565b606091505b50509050806119ae576040517f08c379a00000000000000000000000000000000000000000000000000000000081526004016119a590612730565b60405180910390fd5b50565b600681815481106119c157600080fd5b906000526020600020016000915054906101000a900473ffffffffffffffffffffffffffffffffffffffff1681565b3360005b600680549050811015611ab8578173ffffffffffffffffffffffffffffffffffffffff1660068281548110611a2c57611a2b61225b565b5b9060005260206000200160009054906101000a900473ffffffffffffffffffffffffffffffffffffffff1673ffffffffffffffffffffffffffffffffffffffff161415611aa5576040517fb1c7fba000000000000000000000000000000000000000000000000000000000815260040160405180910390fd5b8080611ab0906122b9565b9150506119f4565b50600060405180606001604052808681526020018581526020018481525090506006339080600181540180825580915050600190039060005260206000200160009091909190916101000a81548173ffffffffffffffffffffffffffffffffffffffff021916908373ffffffffffffffffffffffffffffffffffffffff160217905550806000803373ffffffffffffffffffffffffffffffffffffffff1673ffffffffffffffffffffffffffffffffffffffff1681526020019081526020016000206000820151816000019080519060200190611b96929190611bc8565b50602082015181600101556040820151816002019080519060200190611bbd929190611bc8565b509050505050505050565b828054611bd490612331565b90600052602060002090601f016020900481019282611bf65760008555611c3d565b82601f10611c0f57805160ff1916838001178555611c3d565b82800160010185558215611c3d579182015b82811115611c3c578251825591602001919060010190611c21565b5b509050611c4a9190611d0f565b5090565b60405180606001604052806060815260200160008152602001606081525090565b828054828255906000526020600020908101928215611cbe579160200282015b82811115611cbd578251829080519060200190611cad929190611bc8565b5091602001919060010190611c8f565b5b509050611ccb9190611d2c565b5090565b508054611cdb90612331565b6000825580601f10611ced5750611d0c565b601f016020900490600052602060002090810190611d0b9190611d0f565b5b50565b5b80821115611d28576000816000905550600101611d10565b5090565b5b80821115611d4c5760008181611d439190611ccf565b50600101611d2d565b5090565b600081519050919050565b600082825260208201905092915050565b6000819050602082019050919050565b600081519050919050565b600082825260208201905092915050565b60005b83811015611db6578082015181840152602081019050611d9b565b83811115611dc5576000848401525b50505050565b6000601f19601f8301169050919050565b6000611de782611d7c565b611df18185611d87565b9350611e01818560208601611d98565b611e0a81611dcb565b840191505092915050565b6000611e218383611ddc565b905092915050565b6000602082019050919050565b6000611e4182611d50565b611e4b8185611d5b565b935083602082028501611e5d85611d6c565b8060005b85811015611e995784840389528151611e7a8582611e15565b9450611e8583611e29565b925060208a01995050600181019050611e61565b50829750879550505050505092915050565b60006020820190508181036000830152611ec58184611e36565b905092915050565b6000604051905090565b600080fd5b600080fd5b600080fd5b600080fd5b7f4e487b7100000000000000000000000000000000000000000000000000000000600052604160045260246000fd5b611f2382611dcb565b810181811067ffffffffffffffff82111715611f4257611f41611eeb565b5b80604052505050565b6000611f55611ecd565b9050611f618282611f1a565b919050565b600067ffffffffffffffff821115611f8157611f80611eeb565b5b611f8a82611dcb565b9050602081019050919050565b82818337600083830152505050565b6000611fb9611fb484611f66565b611f4b565b905082815260208101848484011115611fd557611fd4611ee6565b5b611fe0848285611f97565b509392505050565b600082601f830112611ffd57611ffc611ee1565b5b813561200d848260208601611fa6565b91505092915050565b60006020828403121561202c5761202b611ed7565b5b600082013567ffffffffffffffff81111561204a57612049611edc565b5b61205684828501611fe8565b91505092915050565b6000819050919050565b6120728161205f565b82525050565b600060208201905061208d6000830184612069565b92915050565b61209c8161205f565b82525050565b600060608301600083015184820360008601526120bf8282611ddc565b91505060208301516120d46020860182612093565b50604083015184820360408601526120ec8282611ddc565b9150508091505092915050565b6000602082019050818103600083015261211381846120a2565b905092915050565b6121248161205f565b811461212f57600080fd5b50565b6000813590506121418161211b565b92915050565b60006020828403121561215d5761215c611ed7565b5b600061216b84828501612132565b91505092915050565b600073ffffffffffffffffffffffffffffffffffffffff82169050919050565b600061219f82612174565b9050919050565b6121af81612194565b82525050565b60006020820190506121ca60008301846121a6565b92915050565b6000806000606084860312156121e9576121e8611ed7565b5b600084013567ffffffffffffffff81111561220757612206611edc565b5b61221386828701611fe8565b935050602061222486828701612132565b925050604084013567ffffffffffffffff81111561224557612244611edc565b5b61225186828701611fe8565b9150509250925092565b7f4e487b7100000000000000000000000000000000000000000000000000000000600052603260045260246000fd5b7f4e487b7100000000000000000000000000000000000000000000000000000000600052601160045260246000fd5b60006122c48261205f565b91507fffffffffffffffffffffffffffffffffffffffffffffffffffffffffffffffff8214156122f7576122f661228a565b5b600182019050919050565b7f4e487b7100000000000000000000000000000000000000000000000000000000600052602260045260246000fd5b6000600282049050600182168061234957607f821691505b6020821081141561235d5761235c612302565b5b50919050565b600081905092915050565b60008190508160005260206000209050919050565b6000815461239081612331565b61239a8186612363565b945060018216600081146123b557600181146123c6576123f9565b60ff198316865281860193506123f9565b6123cf8561236e565b60005b838110156123f1578154818901526001820191506020810190506123d2565b838801955050505b50505092915050565b600061240e8284612383565b915081905092915050565b600082825260208201905092915050565b7f496e73756666696369656e742046756e64730000000000000000000000000000600082015250565b6000612460601283612419565b915061246b8261242a565b602082019050919050565b6000602082019050818103600083015261248f81612453565b9050919050565b7f496e73756666696369656e742046756e64732e00000000000000000000000000600082015250565b60006124cc601383612419565b91506124d782612496565b602082019050919050565b600060208201905081810360008301526124fb816124bf565b9050919050565b7f496e73756666696369656e7420637265646974732e0000000000000000000000600082015250565b6000612538601583612419565b915061254382612502565b602082019050919050565b600060208201905081810360008301526125678161252b565b9050919050565b7f496e73756666696369656e742046756e6473206f72206e6f7420656e6f75676860008201527f2063726564697473000000000000000000000000000000000000000000000000602082015250565b60006125ca602883612419565b91506125d58261256e565b604082019050919050565b600060208201905081810360008301526125f9816125bd565b9050919050565b600081905092915050565b600061261682611d7c565b6126208185612600565b9350612630818560208601611d98565b80840191505092915050565b6000612648828461260b565b915081905092915050565b600061265e8261205f565b91506126698361205f565b9250827fffffffffffffffffffffffffffffffffffffffffffffffffffffffffffffffff0382111561269e5761269d61228a565b5b828201905092915050565b50565b60006126b9600083612363565b91506126c4826126a9565b600082019050919050565b60006126da826126ac565b9150819050919050565b7f46756e6473207472616e73666572206661696c65642100000000000000000000600082015250565b600061271a601683612419565b9150612725826126e4565b602082019050919050565b600060208201905081810360008301526127498161270d565b905091905056fea2646970667358221220e84db473b22855e9a32690c4bc0245d700fe891df83dfd0ed539730b164bb8f664736f6c63430008090033",
  "devdoc": {
    "kind": "dev",
    "methods": {},
    "version": 1
  },
  "userdoc": {
    "kind": "user",
    "methods": {},
    "version": 1
  },
  "storageLayout": {
    "storage": [
      {
        "astId": 27,
        "contract": "contracts/ncs.sol:ncs",
        "label": "s_studentDetails",
        "offset": 0,
        "slot": "0",
        "type": "t_mapping(t_address,t_struct(Student)20_storage)"
      },
      {
        "astId": 33,
        "contract": "contracts/ncs.sol:ncs",
        "label": "courseToFees",
        "offset": 0,
        "slot": "1",
        "type": "t_mapping(t_address,t_mapping(t_string_memory_ptr,t_uint256))"
      },
      {
        "astId": 37,
        "contract": "contracts/ncs.sol:ncs",
        "label": "totalCreditsEarned",
        "offset": 0,
        "slot": "2",
        "type": "t_mapping(t_address,t_uint256)"
      },
      {
        "astId": 42,
        "contract": "contracts/ncs.sol:ncs",
        "label": "studentToCourseEnrolled",
        "offset": 0,
        "slot": "3",
        "type": "t_mapping(t_address,t_array(t_string_storage)dyn_storage)"
      },
      {
        "astId": 45,
        "contract": "contracts/ncs.sol:ncs",
        "label": "requiredCredits",
        "offset": 0,
        "slot": "4",
        "type": "t_uint256"
      },
      {
        "astId": 48,
        "contract": "contracts/ncs.sol:ncs",
        "label": "approvedCertificates",
        "offset": 0,
        "slot": "5",
        "type": "t_array(t_string_storage)dyn_storage"
      },
      {
        "astId": 51,
        "contract": "contracts/ncs.sol:ncs",
        "label": "existingStudent",
        "offset": 0,
        "slot": "6",
        "type": "t_array(t_address)dyn_storage"
      }
    ],
    "types": {
      "t_address": {
        "encoding": "inplace",
        "label": "address",
        "numberOfBytes": "20"
      },
      "t_array(t_address)dyn_storage": {
        "base": "t_address",
        "encoding": "dynamic_array",
        "label": "address[]",
        "numberOfBytes": "32"
      },
      "t_array(t_string_storage)dyn_storage": {
        "base": "t_string_storage",
        "encoding": "dynamic_array",
        "label": "string[]",
        "numberOfBytes": "32"
      },
      "t_mapping(t_address,t_array(t_string_storage)dyn_storage)": {
        "encoding": "mapping",
        "key": "t_address",
        "label": "mapping(address => string[])",
        "numberOfBytes": "32",
        "value": "t_array(t_string_storage)dyn_storage"
      },
      "t_mapping(t_address,t_mapping(t_string_memory_ptr,t_uint256))": {
        "encoding": "mapping",
        "key": "t_address",
        "label": "mapping(address => mapping(string => uint256))",
        "numberOfBytes": "32",
        "value": "t_mapping(t_string_memory_ptr,t_uint256)"
      },
      "t_mapping(t_address,t_struct(Student)20_storage)": {
        "encoding": "mapping",
        "key": "t_address",
        "label": "mapping(address => struct ncs.Student)",
        "numberOfBytes": "32",
        "value": "t_struct(Student)20_storage"
      },
      "t_mapping(t_address,t_uint256)": {
        "encoding": "mapping",
        "key": "t_address",
        "label": "mapping(address => uint256)",
        "numberOfBytes": "32",
        "value": "t_uint256"
      },
      "t_mapping(t_string_memory_ptr,t_uint256)": {
        "encoding": "mapping",
        "key": "t_string_memory_ptr",
        "label": "mapping(string => uint256)",
        "numberOfBytes": "32",
        "value": "t_uint256"
      },
      "t_string_memory_ptr": {
        "encoding": "bytes",
        "label": "string",
        "numberOfBytes": "32"
      },
      "t_string_storage": {
        "encoding": "bytes",
        "label": "string",
        "numberOfBytes": "32"
      },
      "t_struct(Student)20_storage": {
        "encoding": "inplace",
        "label": "struct ncs.Student",
        "members": [
          {
            "astId": 15,
            "contract": "contracts/ncs.sol:ncs",
            "label": "Name",
            "offset": 0,
            "slot": "0",
            "type": "t_string_storage"
          },
          {
            "astId": 17,
            "contract": "contracts/ncs.sol:ncs",
            "label": "Age",
            "offset": 0,
            "slot": "1",
            "type": "t_uint256"
          },
          {
            "astId": 19,
            "contract": "contracts/ncs.sol:ncs",
            "label": "College",
            "offset": 0,
            "slot": "2",
            "type": "t_string_storage"
          }
        ],
        "numberOfBytes": "96"
      },
      "t_uint256": {
        "encoding": "inplace",
        "label": "uint256",
        "numberOfBytes": "32"
      }
    }
  }
}